:100000000C9434000C9446000C9446000C9446006A
:100010000C9446000C9446000C9446000C94460048
:100020000C9446000C9446000C9446000C94460038
:100030000C9446000C9446000C9446000C94460028
:100040000C9446000C9446000C9446000C94460018
:100050000C9446000C94C1000C9446000C9446008D
:100060000C9446000C94460011241FBECFEFD8E03C
:10007000DEBFCDBF21E0A0E0B1E001C01D92A13004
:10008000B207E1F70E9409010C94F4010C940000FE
:100090008091C00087FFFCCF8091C60008959091A9
:1000A000C00095FFFCCF8093C6000895EF920F9398
:1000B0001F93CF93DF93162FC42FD22F092E000C3E
:1000C000AA0BBB0B9C01AD0184E0220F331F441F20
:1000D000551F8A95D1F760E074E284EF90E00E94AA
:1000E000D201CA01B90161507109810991090E94C7
:1000F0002F010E946C01112319F082E08093C0004F
:10010000EE2029F08091C10080688093C100709337
:10011000C5006093C40088E18093C100023029F4D7
:100120008091C20088608093C200D13091F48091A8
:10013000C20080628093C200C63089F48091C20000
:1001400082608093C200DF91CF911F910F91EF9059
:100150000895D111F1CF8091C2008063EBCFC730F9
:1001600021F48091C2008460ECCFC83021F48091EA
:10017000C2008660E6CFC93031F78091C2008E6040
:10018000E0CF1F920F920FB60F9211242F933F933F
:100190004F935F936F937F938F939F93AF93BF938F
:1001A000CF93EF93FF93C091790080917C008036CC
:1001B00041F0813631F18FEF0E944F0080917C0039
:1001C00007C081E680937C008FE00E944F008C2F57
:1001D0000E944F0080917A00806480937A00FF91A2
:1001E000EF91CF91BF91AF919F918F917F916F913F
:1001F0005F914F913F912F910F900FBE0F901F90E5
:10020000189580E680937C008C2F0E944F0080EF31
:10021000DFCF219AEE24E39401E022E048E060E0A1
:1002200080E895E20E94560080917A008760809372
:100230007A0080917C00806680937C0080917A00B7
:10024000886080937A0080917A00806880937A0039
:10025000789480917A00806480937A00FFCFE8944C
:1002600009C097FB3EF490958095709561957F4FFE
:100270008F4F9F4F9923A9F0F92F96E9BB279395AC
:10028000F695879577956795B795F111F8CFFAF4BC
:10029000BB0F11F460FF1BC06F5F7F4F8F4F9F4FED
:1002A00016C0882311F096E911C0772321F09EE84B
:1002B000872F762F05C0662371F096E8862F70E0B1
:1002C00060E02AF09A95660F771F881FDAF7880F8B
:1002D0009695879597F908950E94B101A8F19E57C8
:1002E000B0F1985160F039F1983070F5092E9927E6
:1002F000660F771F881F991F0A94D1F71CC0BB2770
:10030000993F4CF4B111B1E0B62B672F782F8827B5
:10031000985FB1F708C0869577956795B79508F40B
:10032000B1609395C1F7BB0F30F411F460FF03C0C7
:100330006F5F7F4F8F4F3EF49095809570956195DC
:100340007F4F8F4F9F4F089568940C94CC010C946D
:10035000CB0157FD9058440F551F59F05F3F71F086
:100360004795880F97FB991F61F09F3F79F087951C
:100370000895121613061406551FF2CF4695F1DFA5
:1003800008C0161617061806991FF1CF8695710535
:10039000610508940895E894BB2766277727CB0169
:1003A00097F90895A1E21A2EAA1BBB1BFD010DC0EF
:1003B000AA1FBB1FEE1FFF1FA217B307E407F50715
:1003C00020F0A21BB30BE40BF50B661F771F881FF1
:1003D000991F1A9469F760957095809590959B0187
:0C03E000AC01BD01CF010895F894FFCFDF
:00000001FF
